{
	"andrea": {
		"name": "andrea",
		"chains": {
			"local": {
				"network": {
					"name": "local",
					"url": "http://127.0.0.1:8545",
					"header": "eth"
				},
				"accounts": {},
				"block": {
					"type": "eth",
					"header": {
						"header": {
							"parentHash": "0x30f24f3ce04ce6a030d2d34061e8c795206acaa0ccde2412155c56a96e69f867",
							"sha3Uncles": "0x1dcc4de8dec75d7aab85b567b6ccd41ad312451b948a7413f0a142fd40d49347",
							"miner": "0x0000000000000000000000000000000000000000",
							"stateRoot": "0xa0ccecc27febfbbf304f3b2cbaff3f2845ad63be668983bfcf6189fb437142c4",
							"transactionsRoot": "0x7caee9dfc7f28115040ca45df6ece7b7e32e4d822e7e330237ce980bb6d24b1b",
							"receiptsRoot": "0xf3ade0d171a4ebd47b265fa677c485da27f4e296b02b00d264c272a6dbc3bded",
							"logsBloom": "0x00000000000000000000000000000000080000040000000000000000000000000000000000000100000000000000000080000000000040000000000000000000000800000000000000000000000000000000000002000000000000000000000000000000010000000000000000000000000000000000000000000000000000000000000000000000000000000000000000000000004000000000000000000000000000000000000000000000000000000008000000000000010000000000000000000000000000000000000000000000000000000000000000000000000000000000000000002000000000000000000000000000000000000000000000000000",
							"difficulty": "0x0",
							"number": "0x35",
							"gasLimit": "0xfffffffffffff",
							"gasUsed": "0x798e0",
							"timestamp": "0x5e7f84c4",
							"extraData": "0x",
							"mixHash": "0x0000000000000000000000000000000000000000000000000000000000000000",
							"nonce": "0x0000000000000000",
							"hash": "0x0498d0446b5307b1b227928f8f5b90451a709a8d277b304f514be8a205900ea5"
						},
						"rlp_encoded": "f901fba030f24f3ce04ce6a030d2d34061e8c795206acaa0ccde2412155c56a96e69f867a01dcc4de8dec75d7aab85b567b6ccd41ad312451b948a7413f0a142fd40d49347940000000000000000000000000000000000000000a0a0ccecc27febfbbf304f3b2cbaff3f2845ad63be668983bfcf6189fb437142c4a07caee9dfc7f28115040ca45df6ece7b7e32e4d822e7e330237ce980bb6d24b1ba0f3ade0d171a4ebd47b265fa677c485da27f4e296b02b00d264c272a6dbc3bdedb90100000000000000000000000000000000000800000400000000000000000000000000000000000001000000000000000000800000000000400000000000000000000008000000000000000000000000000000000000020000000000000000000000000000000100000000000000000000000000000000000000000000000000000000000000000000000000000000000000000000000040000000000000000000000000000000000000000000000000000000080000000000000100000000000000000000000000000000000000000000000000000000000000000000000000000000000000000020000000000000000000000000000000000000000000000000008035870fffffffffffff830798e0845e7f84c480a00000000000000000000000000000000000000000000000000000000000000000880000000000000000"
					}
				},
				"transaction": {
					"tx": null,
					"proof": ""
				}
			},
			"rinkeby": {
				"network": {
					"name": "rinkeby",
					"url": "https://rinkeby.infura.io/v3/430e7d9d2b104879aee73ced56f0b8ba",
					"header": "clique"
				},
				"accounts": {},
				"block": {
					"type": "clique",
					"header": {
						"header": {
							"parentHash": "0xe2d4a88a2cd20deae074bb74a517a4ee18a86b5ec581506b5041fe820caebadf",
							"sha3Uncles": "0x1dcc4de8dec75d7aab85b567b6ccd41ad312451b948a7413f0a142fd40d49347",
							"miner": "0x0000000000000000000000000000000000000000",
							"stateRoot": "0xd2e4cd518027f73b4064a33ba17a6ba4d28352c56cc7b7826e82406ce3d702ab",
							"transactionsRoot": "0x0d806bb9bcc60f0edd31eded4f33b63d775614523c5be5f0bd808e8ae766b93b",
							"receiptsRoot": "0x686f1d75dc4ce83c9c31a364830d56f611a678547d79a63d9a844a6f07ff4a41",
							"logsBloom": "0x00004000000008000000000000402080000000010000000000001000000000000000000000001000011000000010000000000000020080000080100000200400020010000040000080010000000000010000040000000000000000000000000000000040002000000000001000000000000000000001080000000000400000010800100000100020000000000000001000002800004000000008000000000014020400000000000000d00000010604100000000000800000200000080000400000400000000000000400000000000000080100400088000100000000800000000010000000000080000100002008000200010108120008010090000000000000",
							"difficulty": "0x1",
							"number": "0x5edee2",
							"gasLimit": "0x989680",
							"gasUsed": "0xabe26",
							"timestamp": "0x5e7f8675",
							"extraData": "0xd88301090c846765746888676f312e31332e34856c696e757800000000000000",
							"mixHash": "0x0000000000000000000000000000000000000000000000000000000000000000",
							"nonce": "0x0000000000000000",
							"hash": "0xf79b150e6484608c5e784ad7a1df9fefe69480954cb8234d90e24834cc9d0bdd"
						},
						"rlp_signed": "f9025ca0e2d4a88a2cd20deae074bb74a517a4ee18a86b5ec581506b5041fe820caebadfa01dcc4de8dec75d7aab85b567b6ccd41ad312451b948a7413f0a142fd40d49347940000000000000000000000000000000000000000a0d2e4cd518027f73b4064a33ba17a6ba4d28352c56cc7b7826e82406ce3d702aba00d806bb9bcc60f0edd31eded4f33b63d775614523c5be5f0bd808e8ae766b93ba0686f1d75dc4ce83c9c31a364830d56f611a678547d79a63d9a844a6f07ff4a41b9010000004000000008000000000000402080000000010000000000001000000000000000000000001000011000000010000000000000020080000080100000200400020010000040000080010000000000010000040000000000000000000000000000000040002000000000001000000000000000000001080000000000400000010800100000100020000000000000001000002800004000000008000000000014020400000000000000d0000001060410000000000080000020000008000040000040000000000000040000000000000008010040008800010000000080000000001000000000008000010000200800020001010812000801009000000000000001835edee283989680830abe26845e7f8675b861d88301090c846765746888676f312e31332e34856c696e757800000000000000df2f05d0dea0d3a66b309c3458c0397440d4dee3909b9ad9ee04cefd3d3df4f94a3bc303e5fb09cb5124e52a5fc5100b40a24b82616be44d0784396079facffe01a00000000000000000000000000000000000000000000000000000000000000000880000000000000000",
						"rlp_unsigned": "f9021aa0e2d4a88a2cd20deae074bb74a517a4ee18a86b5ec581506b5041fe820caebadfa01dcc4de8dec75d7aab85b567b6ccd41ad312451b948a7413f0a142fd40d49347940000000000000000000000000000000000000000a0d2e4cd518027f73b4064a33ba17a6ba4d28352c56cc7b7826e82406ce3d702aba00d806bb9bcc60f0edd31eded4f33b63d775614523c5be5f0bd808e8ae766b93ba0686f1d75dc4ce83c9c31a364830d56f611a678547d79a63d9a844a6f07ff4a41b9010000004000000008000000000000402080000000010000000000001000000000000000000000001000011000000010000000000000020080000080100000200400020010000040000080010000000000010000040000000000000000000000000000000040002000000000001000000000000000000001080000000000400000010800100000100020000000000000001000002800004000000008000000000014020400000000000000d0000001060410000000000080000020000008000040000040000000000000040000000000000008010040008800010000000080000000001000000000008000010000200800020001010812000801009000000000000001835edee283989680830abe26845e7f8675a0d88301090c846765746888676f312e31332e34856c696e757800000000000000a00000000000000000000000000000000000000000000000000000000000000000880000000000000000"
					}
				},
				"transaction": {
					"tx": null,
					"proof": ""
				}
			}
		}
	}
}